:020000040800F2
:10000000000400205702000865020008670200088B
:10001000690200086B0200086D0200080000000081
:100020000000000000000000000000006F02000857
:100030007102000800000000730200087502000849
:1000400077020008770200087702000877020008AC
:10005000770200087702000877020008770200089C
:10006000770200087702000877020008770200088C
:10007000770200087702000877020008770200087C
:10008000770200087702000877020008770200086C
:10009000770200087702000877020008770200085C
:1000A000770200087702000877020008770200084C
:1000B000D90F0008770200087702000877020008CD
:1000C000770200087702000877020008770200082C
:1000D00077020008AB0600087702000877020008E4
:1000E000770200087702000877020008770200080C
:1000F00077020008770200087702000877020008FC
:1001000077020008770200087702000877020008EB
:1001100077020008770200087702000877020008DB
:1001200077020008770200087702000877020008CB
:1001300000F002F800F078F80AA090E8000C824481
:100140008344AAF10107DA4501D100F06DF8AFF25E
:10015000090EBAE80F0013F0010F18BFFB1A43F0A5
:10016000010318475C9400007C9400000A444FF09F
:10017000000C10F8013B13F0070408BF10F8014B06
:100180001D1108BF10F8015B641E05D010F8016B4B
:10019000641E01F8016BF9D113F0080F1EBF10F8AF
:1001A000014BAD1C0C1B09D16D1E58BF01F801CBD2
:1001B000FAD505E014F8016B01F8016B6D1EF9D555
:1001C0009142D6D37047000000230024002500266A
:1001D000103A28BF78C1FBD8520728BF30C148BFAA
:1001E0000B607047662908F0FA81642905F05A838C
:1001F000752905F05783782905F09083632905F068
:10020000B087732905F0B587002070471FB508F047
:100210002AF905F0E7FF04000020002107F006F9A5
:10022000E0601FBD10B510BD06F024F91146FFF7C0
:10023000EDFF00F0F7FA06F042F903B4FFF7F2FF22
:1002400003BC00F025FA000030BF72B662B680F33E
:100250000888704770470B4880470B4981F308882E
:100260000A480047FEE7FEE7FEE7FEE7FEE7FEE797
:10027000FEE7FEE7FEE7FEE705480649044A064BAF
:100280007047000055020008E80A0020310100080C
:10029000E8020020E80A0020E80200204FF0E021F8
:1002A000096921F004014FF0E02211614FEAE07288
:1002B00000EB52724FEAE202244B1A701946097899
:1002C0004FF47A7201FB02F1214A11807047014616
:1002D0001E4A127801FB02F24FF0E0235A614FF000
:1002E00000029A614FF001021A6100BF4FF0E02254
:1002F000106910F0010F02D010F4803FF6D04FF0DB
:1003000000024FF0E0231A619A6170470146104ADB
:10031000128801FB02F24FF0E0235A614FF0000215
:100320009A614FF001021A6100BF4FF0E02210699C
:1003300010F0010F02D010F4803FF6D04FF0000211
:100340004FF0E0231A619A6170470000000000201E
:1003500002000020BB4A01EA020242EA0002BA4B54
:100360001A60704701464FF0070323EA01024FEA83
:100370000222B64B18684FF6FF0300EA0300B44BA5
:1003800040EA030040EA0200B04B186070472DE9D4
:10039000F0478046894614461D4620464FEAE471E0
:1003A00004EB91714FEAA10A4FEAE47104EB9171F9
:1003B0004FEAA101A4EB8101CFB24FF0040000EBA2
:1003C000C700C7B22846FFF7CDFFC5F1040008FA01
:1003D00000F64FF00F0040FA05F000EA090040EA8D
:1003E000060606F00F06202C0CDA9A4800684FF03B
:1003F000010101FA04F140EA01004FF0E021C1F8E7
:1004000000010DE094480068A4F120014FF00102C2
:1004100002FA01F240EA02004FF0E021C1F80401C3
:100420008E4850F82A0006FA07F140EA01008B498D
:1004300041F82A00BDE8F08770B504460B464FEA44
:10044000E17601EB96764FEAA6004FEAE17601EB02
:1004500096764FEAA606A1EB86064FEA86664FEA35
:1004600016657F4B9B6943F001037D4EB3614FEAF4
:10047000B63353F820304FF00F0606FA05F623EA9C
:100480000603784E46F82030334653F8203004FAFD
:1004900005F643EA0603734E46F82030724B1E6899
:1004A0004FF0010303FA01F346EA03066E4B1E60A8
:1004B00012F0010F09D06D4B1B684FF0010606FAD0
:1004C00001F643EA0603694E336012F0020F09D0C9
:1004D000674B1B684FF0010606FA01F643EA060374
:1004E000634E336070BD00B54FF000005C49086199
:1004F000C8604FF0140048614FF000008861C86187
:100500000846006840F00100086008464068594904
:1005100000EA01005249486008460068564900EA6E
:1005200001004F4908600846006820F480200860F8
:100530000846406820F4FE0048604FF000008860E4
:1005400001464FF00060FFF705FF00BD10B54B48B6
:10055000006840F00400494908604148C06940F023
:1005600080503F49C8614648406840F48070444923
:1005700048600846006840F00400086008460068CB
:1005800040F002000860FFF75FFE10BD3D482F49B4
:100590000860704701464FEA4161314A926942F072
:1005A00001022F4B9A61384A526822F0E062364BC2
:1005B0005A601A46526842EA01025A60704730B5E2
:1005C00004464FF00005FFF78EFF2548006840F411
:1005D00080302349086000BF21480068400CFBD0F0
:1005E0004FF480601E494860A4F10200C4B208467E
:1005F000406840EA844048600846406840F48030E3
:1006000048602248006840F03200204908601448E1
:10061000006840F080701249086000BF1048006810
:10062000400EFBD00E48406840F002000C49486084
:1006300005E00B484068C0F3870505F00305022D6F
:10064000F7D130BD80FFFF1F08ED00E00CED00E0AA
:100650000000FA0500E100E004E100E000E400E051
:100660000010024008000140000401400C04014059
:10067000080401400000FFF8FFFFF6FE10ED00E067
:10068000007000400400FA05000001400020024014
:10069000014600BF704700BF594A128812F0400F50
:1006A000FAD0C2B2574B1A8070475549098811F0E9
:1006B000200F36D053490988C8B25349098811F42C
:1006C000004F2ED15049098811F4804F0DD00A28CF
:1006D00004D04FF000014C4A118022E04A490988B9
:1006E00041F40041484A11801BE00D2806D14649DB
:1006F000098841F48041444A118012E04249098846
:10070000C1F30D01414A50543F49098801F10101EB
:100710003D4A118011460988C72902DD4FF00001CA
:10072000118070472DE9F05F05460E464FEA06102E
:1007300007F08AFD8146364905FB01F007F084FD8C
:100740008246494607F036FC0746384607F044FD26
:1007500084B2204607F078FD8346394607F0C0FE94
:1007600082464FF0834107F0B7FD814607F034FD24
:1007700080464FEA041404EB080084B225488069DF
:1007800040F00400234988610846806940F48040B5
:1007900088612148006820F47F601F49086008468E
:1007A000006840F40B6008601A48C06840F480405C
:1007B0001849C8600846C06820F48040C8601748DF
:1007C000048000F10400008842F20C0140EA0100BC
:1007D000134908800846008840F480700880084665
:1007E000008840F0200008804FF002034FF02502FF
:1007F0004FF003010846FFF7CAFDBDE8F09F000077
:10080000003801400438014004000020A00100200D
:1008100040420F0000100240040801400838014027
:100820000C3801401FB50920FFF7C9FE4820FFF72B
:1008300035FD4FF4E1314820FFF774FF482000F008
:1008400005FC00F03BF800F079F801F025F904F020
:100850001FFC1EE004F08AFC0E48006807F010FB45
:1008600004460D460C48006807F00AFB06460F4692
:100870000A48006807F004FB804642460B4608A081
:10088000CDE90067CDE9024504F0AEFF0A20FFF78D
:100890003DFDDFE794010020980100209C0100202D
:1008A00025662020202C20202025662020202C209A
:1008B00020202566202020200D0A0000194880698C
:1008C00040F49070174988611748406820F04060F4
:1008D000154948600846406840F040704860134839
:1008E000006820F44000114908600846006840F4A0
:1008F0004010086070470E48006810B94FF00100C2
:1009000001E04FF000000A4908600A48D0F8B4013D
:1009100010B94FF0010001E04FF0000006490860F7
:100920007047000000100240002001400414014004
:10093000B801244200802242B481224215488069D5
:1009400040F05000134988611348006820F0070008
:10095000114908600846006840F0080008600F4828
:1009600040686FF4E00100EA01000C494860084665
:10097000406840F4000048600948006840F0010009
:10098000074908600548C06840F400500349C86042
:1009900070470000001002400018014000100140A4
:1009A0000C18014010B58CB004464FF01E030BAA82
:1009B00003A9204600F033FE0090009810B10120FA
:1009C0000CB010BD9DF82C0004444FF000000B90BB
:1009D0000FE060489DF82C2050F8221003A800F08A
:1009E00077FD00B909E09DF82C0000F10100C0B2CC
:1009F0000B909DF82C000828EBDB00BF9DF82C0025
:100A000007287CD2DFE800F00405395D8FA4A3003D
:100A100000BF51A004F0E8FE50A004F0E5FE5FA086
:100A200004F0E2FE6DA004F0DFFE7CA004F0DCFE2A
:100A30008AA004F0D9FE99A004F0D6FEA5A004F087
:100A4000D3FEABA004F0D0FEAFA004F0CDFEB4A066
:100A500004F0CAFEB8A004F0C7FEBDA004F0C4FEB6
:100A6000C2A004F0C1FECEA004F0BEFED9A004F0E6
:100A7000BBFEE5A004F0B8FEABE237A004F0B4FE84
:100A8000F1A004F0B1FE4FF000000B900FE0FE4823
:100A900000689DF82C2000EBC2004168FBA004F028
:100AA000A3FE9DF82C0000F10100C0B20B90F648A7
:100AB000007D9DF82C108842E9DC27A004F094FE0C
:100AC00087E225A004F090FEF2A004F08DFE4FF026
:100AD00000000B901DE0EC4909689DF82C2001EB0B
:100AE000C20101AB02AA486803A900F0C5FDE648AF
:100AF00000689DF82C1050F8312003A900E066E250
:100B0000F4A004F071FE9DF82C0000F10100C0B2C9
:100B10000B90DD48007D9DF82C108842DBDC0EA098
:100B200004F062FE55E20CA004F05EFE0BAA03A9DD
:100B3000204600F095FE9DF82C0038B9694603A8C0
:100B400000F001FD0B909DF82C00CDE1E0E111E2F9
:100B5000E4E100000C0000200D0A00002D2D2D2DD9
:100B60002D2D2D2D2D2D2D2D2D2D2D2D2D2D2D2DB5
:100B70002D2D2D2D55534D4152542056322E382DAA
:100B80002D2D2D2D2D2D2D2D2D2D2D2D2D2D2D2D95
:100B90002D2D2D2D2D2D2D200D0A00002020202063
:100BA00055534D415254CAC7D3C9414C49454E547F
:100BB000454BBFAAB7A2B5C4D2BBB8F6C1E9C7C9F5
:100BC000B5C4B4AEBFDAB5F7CAD4BBA5BDBBD7E9CF
:100BD000BCFE2CCDA8B9FD200D0A0000CBFC2CC416
:100BE000E3BFC9D2D4CDA8B9FDB4AEBFDAD6FACA34
:100BF000D6B5F7D3C3B3CCD0F2C0EFC3E6B5C4C803
:100C0000CEBACEBAAFCAFD2CB2A2D6B4D0D02ED2B4
:100C1000F2B4CB2CC4E3BFC90D0A0000D2D4CBE69A
:100C2000D2E2B8FCB8C4BAAFCAFDB5C4CAE4C8EBD6
:100C3000B2CECAFD28D6A7B3D6CAFDD7D628313042
:100C40002F3136BDF8D6C629A1A2D7D6B7FBB4AE90
:100C5000A1A2BAAFCAFDC8EB0D0A0000BFDAB5D831
:100C6000D6B7B5C8D7F7CEAAB2CECAFD292CB5A53E
:100C7000B8F6BAAFCAFDD7EEB6E0D6A7B3D63130D4
:100C8000B8F6CAE4C8EBB2CECAFD2CB2A2D6A7B35E
:100C9000D6BAAFCAFDB7B5200D0A0000BBD8D6B58D
:100CA000CFD4CABE2ED0C2D4F6B2CECAFDCFD4CADB
:100CB000BEBDF8D6C6C9E8D6C3B9A6C4DC2CD0C21E
:100CC000D4F6BDF8D6C6D7AABBBBB9A6C4DC2E0DD8
:100CD0000A000000BCBCCAF5D6A7B3D63A7777772E
:100CE0002E6F70656E6564762E636F6D0D0A000061
:100CF00055534D415254D3D036B8F6CFB5CDB3C3CA
:100D0000FCC1EE3A0D0A00003F3A20202020BBF142
:100D1000C8A1B0EFD6FAD0C5CFA20D0A00000000DE
:100D200068656C703A20BBF1C8A1B0EFD6FAD0C5A7
:100D3000CFA20D0A000000006C6973743A20BFC98D
:100D4000D3C3B5C4BAAFCAFDC1D0B1ED0D0A0A0014
:100D500069643A202020BFC9D3C3BAAFCAFDB5C465
:100D60004944C1D0B1ED0D0A0A0000006865783A27
:100D70002020B2CECAFD3136BDF8D6C6CFD4CABE09
:100D80002CBAF3B8FABFD5B8F12BCAFDD7D6BCB48C
:100D9000D6B4D0D0BDF8D6C6D7AABBBB0D0A0A00C0
:100DA0006465633A2020B2CECAFD3130BDF8D6C6A4
:100DB000CFD4CABE2CBAF3B8FABFD5B8F12BCAFD4E
:100DC000D7D6BCB4D6B4D0D0BDF8D6C6D7AABBBB94
:100DD0000D0A0A00C7EBB0B4D5D5B3CCD0F2B1E060
:100DE000D0B4B8F1CABDCAE4C8EBBAAFCAFDC3FB00
:100DF000BCB0B2CECAFDB2A2D2D4BBD8B3B5BCFC93
:100E0000BDE1CAF82E0D0A002D2D2D2D2D2D2D2DD5
:100E10002D2D2D2D2D2D2D2D2D2D2D2D2D2D2D2D02
:100E20002D2D414C49454E54454B2D2D2D2D2D2D0D
:100E30002D2D2D2D2D2D2D2D2D2D2D2D2D2D2D2DE2
:100E40002D2D2D200D0A00002D2D2D2D2D2D2D2D7C
:100E50002D2D2D2D2D2D2D2D2D2D2D2D2D2D2D2DC2
:100E60002DBAAFCAFDC7E5B5A52D2D2D2D2D2D2DE4
:100E70002D2D2D2D2D2D2D2D2D2D2D2D2D2D2D2DA2
:100E80002D2D2D2D200D0A004C00002025730D0A5C
:100E9000000000002D2D2D2D2D2D2D2D2D2D2D2D36
:100EA0002D2D2D2D2D2D2D2D2D2D2D2D2DBAAFCAC6
:100EB000FD204944202D2D2D2D2D2D2D2D2D2D2D79
:100EC0002D2D2D2D2D2D2D2D2D2D2D2D2D2D2D2D52
:100ED000200D0A0025732069642069733A0D0A30D9
:100EE00058253038580D0A0020B9FEA0009904F0AA
:100EF0007BFC0FE09DF82C00042801D002205FE568
:100F0000FBA004F071FC4FF00100FE49C87501E040
:100F1000022055E5F5A004F067FC5AE0F3A004F0C8
:100F200063FC0BAA03A9204600F09AFC9DF82C0054
:100F3000D0B9694603A800F006FB0B909DF82C0081
:100F400020B9F1A0009904F04FFC0FE09DF82C00AF
:100F5000042801D0022033E5EEA004F045FC4FF058
:100F60000000E849C87501E0022029E5DFA004F08F
:100F70003BFC2EE0DDA004F037FC0BAA03A92046C1
:100F800000F06EFC9DF82C00D8B9694603A800F06B
:100F9000DAFA0B909DF82C0088B9DA48C07D012858
:100FA00006D1009801460268DFA004F01DFC0AE0AB
:100FB000009801460268E0A004F016FC03E002205D
:100FC000FEE40220FCE4C9A004F00EFC01E00120D4
:100FD000F6E400BF0020F3E410B54FF08040008A33
:100FE00010F0010F02D0C749086980474FF08040D8
:100FF000008A20F001004FF08041088210BD70B5DA
:1010000005460C46CF48C06940F00100CD49C86193
:101010004FF0804085850485808940F001004FF0C5
:10102000804188810846808940F0400088810846D8
:10103000008840F0010008804FF002034FF01C02CE
:101040004FF003010846FFF7A2F970BD10B5044642
:1010500004EBC40000EB04104FF00102C2EB80006F
:1010600081B24FF47A70FFF7CAFF4FF00100A54933
:10107000C87510BD30B595B0054613AB12AA09A9C5
:10108000284600F0F9FA044614B1204615B030BDE8
:101090004FF00000149027E09A4909689DF850200D
:1010A00001EBC20113AB11AA486801A900F0E4FAF0
:1010B00004460CB12046E9E709A901A800F008FAA6
:1010C00060B99DF844009DF84810884201DD022077
:1010D000DCE79DF850008B4988750BE09DF85000C7
:1010E00000F10100C0B214908648007D9DF85010B8
:1010F0008842D1DC00BF8348007D9DF850108842B3
:1011000001D10420C2E714A9284600F021FC0446BE
:101110000CB12046BAE79DF850007A494875002086
:10112000B4E7F0B59BB07748847D007DA04201DC38
:101130001BB0F0BD7349096801EBC40107AB08AAF5
:10114000486809A900F098FA09A97FA004F04CFBAF
:101150004FF0000646E06B48018B012000FA06F0D4
:1011600001421BD022217AA004F03EFB304600F061
:10117000E0FB644924314718394676A004F034FB7B
:10118000222173A004F030FB304600F0D2FB5D4911
:101190002431084411A941F8260018E0304600F037
:1011A000C8FB58492431085811A941F82600554870
:1011B000C07D30B911A850F8261067A004F014FBC8
:1011C00005E011A850F8261064A004F00DFB9DF86E
:1011D0002000401EB04202D062A004F005FB06F1E0
:1011E0000100C6B29DF820008642B4DB5EA004F088
:1011F000FBFA4448407D0B280DD2DFE800F0060DD5
:10120000151E27323F4E5FB7CC003E49096851F8A2
:10121000340080470546D5E03A4A126852F8341047
:10122000119888470546CDE0364B1B6853F83420AB
:10123000DDE9110190470546C4E0324F3F6857F899
:10124000343011A807C898470546BBE0DFF8B4C0A2
:10125000DCF800C05CF8347011A80FC8B847054628
:10126000B0E01598DFF89CC00090DCF800C05CF896
:10127000347011A80FC8B8470546A3E0DDE9150191
:10128000DFF880C0CDE90001DCF800C05CF8347004
:1012900011A80FC8B847054694E0DDE91512179864
:1012A000DFF860C0CDE900120290DCF800C05CF805
:1012B000347011A80FC8B847054683E0DDE915234F
:1012C000DDE91710DFF83CC0CDE90023CDE90210BD
:1012D000DCF800C05CF8347011A80FC8B8470546A8
:1012E00070E000004845583A305825580D0A000073
:1012F0003136BDF8D6C6B2CECAFDCFD4CABE210D96
:101300000A0000004C0000204445433A256C750D4E
:101310000A0000003130BDF8D6C6B2CECAFDCFD427
:10132000CABE210D0A0000002A2830582558293D40
:10133000305825580D0A00002A282564293D2564C7
:101340000D0A0000001002400D0A2573280000005D
:101350002563000025730000256C75003058255862
:10136000000000002C00000029000000DDE9161339
:10137000DDE91802CDE90113CDE903021598DFF884
:10138000F8C00090DCF800C05CF8347011A80FC8F9
:10139000B847054616E0DDE91723DDE91910CDE968
:1013A0000223CDE90410DDE91501DFF8CCC0CDE959
:1013B0000001DCF800C05CF8347011A80FC8B84711
:1013C000054600BF00BF9DF81C0001280CD12A482B
:1013D000C07D20B9294629A004F006FA07E0294675
:1013E00028A004F001FA02E025A004F0FDF900BFF6
:1013F0009EE670B52648008810F4004F36D0244889
:101400000088C5B24FF00000224948551A4881684B
:101410002048884704461CB91749C868804721E01E
:101420001C48FFF7BFFA0546012D00D02C46CCB171
:10143000012C06D0022C08D0032C0AD0042C10D189
:101440000BE015A004F0D0F90BE016A004F0CCF9E5
:1014500007E017A004F0C8F903E018A004F0C4F9ED
:1014600000BF00BF4FF000000949088070BD014671
:1014700008687047016070474C0000203D256C757E
:101480003B0D0A003D305825583B0D0A0000000076
:1014900004000020A0010020BAAFCAFDB4EDCEF3D5
:1014A000210D0A00B2CECAFDB4EDCEF3210D0A0023
:1014B000B2CECAFDCCABB6E0210D0A00CEB4D5D277
:1014C000B5BDC6A5C5E4B5C4BAAFCAFD210D0A00B5
:1014D00002460CE010780B78984201D0012070474A
:1014E000107800B904E002F1010201F10101F1E715
:1014F00000BF0020F3E708E002780A70027802B922
:1015000004E000F1010001F10101F5E700BF7047BF
:1015100001464FF0000007E00A7802B905E000F14B
:101520000102D0B201F10101F6E700BF704710B52A
:1015300002464FF0010000E050430B00A1F101040E
:10154000E1B2F9D110BD2DE9F04307460E464FF048
:1015500000054FF00A083C462846306021E020781C
:10156000392802DC207830280ADA2078462802DC84
:101570002078412804DA207858280AD1012D08D192
:101580002078412801DB4FF0100805F10100C5B2B9
:1015900005E0207800B905E00120BDE8F08304F102
:1015A0000104DCE700BF3C46B8F1100F11D1032D58
:1015B00001DA0220F1E72078302808D16078582835
:1015C00005D104F10204A5F10200C5B204E0032034
:1015D000E3E70DB90420E0E71DE015B1A5F1010036
:1015E000C5B22078392806DC2078302803DB207843
:1015F000A0F1300902E02078A0F1370929464046E1
:10160000FFF795FF316809FB0010306004F1010419
:10161000207800B900E0E0E700BF0020BDE710B58A
:1016200004464FF0000010700EE02078087004F1BE
:10163000010401F10101107800F10100107010782F
:10164000984201DB012010BD2078202802D02078AC
:101650000028EAD14FF00000087000BFF3E7014610
:1016600001F1010101E001F101010878202801D117
:101670000029F8D1087870472DE9FF4F85B08046E2
:1016800089464FF000073846049003904FF0010060
:1016900002904FF0000B4FF0000544461FE0207809
:1016A000202817D005F07F00052813DA0DB945F082
:1016B000800505F07F00042803D120782A2800D077
:1016C00010E0207805F07F010DF8010005F1010020
:1016D000C5B202E0852D00D104E004F101042078B8
:1016E0000028DCD100BFADB14FF0000005F07F0154
:1016F0000DF80100E0A16846FFF7EAFE20B94FF0BF
:1017000000010898017003E04FF001010898017092
:101710004FF000054FF0000A444615E004F10104C3
:101720000AF1010000F0FF0A2078202802D020787A
:101730002A2809D12046FFF792FF0646282E03D01B
:101740002A2E01D0CDF810A02078282802D02078A9
:101750000028E3D14446049818B1049800F1010030
:1017600004444FF0000A56465EE0207810B94FF06E
:10177000010A5AE02078282804D11EB907F1010097
:10178000C7B216E02078292809D146B91FB1A7F1C0
:101790000100C7B201E04FF0010A57B945E02078D7
:1017A000222806D116B94FF0010001E04FF00000E9
:1017B000064647B92078202834D0207889F80000E0
:1017C00009F101092EE020782C2806D14FF0010004
:1017D000029005F10100C5B215E02078202812D052
:1017E000207828280FD04DB9BBF1050F06DA2078F4
:1017F0000DF80B000BF1010000F0FF0B029800F157
:101800000100C0B20290012F0CD10298022809D128
:10181000029800F10100C0B20290039800F10100AB
:10182000C0B2039004F101049FE700BF03980128B0
:101830000BD14FF000000DF80B008FA16846FFF7A9
:1018400047FE10B94FF00000039007990398087005
:101850004FF0000089F80000504609B0BDE8F08F55
:10186000F0B5034615464FF0000002460646044612
:1018700058E01F782C2F02D10CB94FF001021F78CD
:10188000292F01D01F780FB904B94CE0002E38D1B0
:101890001F78302F02DB1F78392F11DD1F78612F61
:1018A00002DB1F78662F0BDD1F78412F02DB1F78CC
:1018B000462F05DD1F78582F02D01F78782F0ED1C4
:1018C00002B130E01F78612F04DB1F78A7F12007F9
:1018D0000F7001E01F780F7001F101011DE01F780A
:1018E000222F05D102B11EE04FF00106344614E06C
:1018F0001F78202F11D01F782C2F0ED04FF0FF060D
:1019000011E01F78222F01D14FF0000402B10AE04C
:101910001CB11F780F7001F1010100F10107F8B24D
:1019200003F10103A5E700BF4FF000070F702E7011
:10193000F0BD02464FF00000014606E0504B5B5CF4
:101940000344D8B201F10103D9B29142F6DB7047EA
:101950002DE9F043B5B005460F464FF0000426468A
:1019600006E04FF000014648815506F10100C6B27D
:101970000A2EF6DB07E005F10105287818B90120E9
:1019800035B0BDE8F08328782828F4D105F10105A9
:101990006DE034AA69462846FFF762FF06463544E3
:1019A0009DF8D00020B101282DD0FF2858D155E056
:1019B0009DF8000030B333A96846FFF7C4FD064622
:1019C0000EB10220DCE72046FFF7B3FF2C490A31B5
:1019D000339A0A50A1F12400008B4FF0010101FA63
:1019E00004F120EA01002649A1F11A0108834FF011
:1019F00004012348015504F10100C4B20A2C01DDA1
:101A00000320BDE72CE06846FFF782FD00F10100EE
:101A100000F0FF082046FFF78CFF19490A3100EB60
:101A2000010949466846FFF766FD15481A38018BDB
:101A30004FF0010000FA04F041EA000188B21049B9
:101A4000A1F11A0108830E4800F8048004F1010096
:101A5000C4B20A2C01DD032092E701E002208FE7E7
:101A600000BF2878292801D0287800B900E090E745
:101A700000BF3C70002083E7766F696400000000BF
:101A8000660000204FF0040000BF0100A0F1010239
:101A9000D0B2FAD170477047FD48806940F0080025
:101AA000FB498861FB48006820F07F40F9490860E5
:101AB0000846006840F04C500860704710B5F54883
:101AC000006820F07040F34908600846006840F064
:101AD000405008604FF00100EF490860EF49C1F83D
:101AE0009801FFF7CFFF4FF00000EB490860FFF7C8
:101AF000C9FF4FF00000E949C1F898014FF001001B
:101B000010BD10B5E348006820F07040E14908605E
:101B10000846006840F0405008604FF00000E0497F
:101B20000860DE49C1F89C01FFF7ACFF4FF00100EF
:101B3000DB490860D949C1F89C01FFF7A3FF10BD3C
:101B400010B54FF00004D348006820F07040D14930
:101B500008600846006840F0004008604FF001004F
:101B6000CD490860FEF7B3FB4FF00100CB49C1F847
:101B70009801FEF7ACFB0AE004F10100C4B2322C7C
:101B800003DDFFF7BEFF002010BDFFF77BFFC54858
:101B900000680028F0D1C24908604FF00100F3E767
:101BA00010B54FF00000BE490860BA48006820F048
:101BB0007040B84908600846006840F0405008602E
:101BC0004FF00000B549C1F89C01FFF75BFF4FF0F3
:101BD0000100B3490860FFF755FF4FF00000AF491F
:101BE000C1F8980110BD10B54FF00000AC49086075
:101BF000A848006820F07040A649086008460068C0
:101C000040F0405008604FF00100A449C1F89C0129
:101C1000FFF738FF4FF00100A1490860FFF732FFDE
:101C20004FF000009D49C1F8980110BD70B5044601
:101C30009848006820F0704096490860084600689F
:101C400040F0405008604FF000009549086005469C
:101C500019E04FEAD410904908604FEA44604FEA17
:101C60001064FFF70FFF4FF001008C49C1F8980195
:101C7000FFF708FF4FF0000089490860FFF702FFF7
:101C800005F10100C5B2082DE3DB70BD2DE9F0417F
:101C900005460E4617469846FFF710FF10B901207B
:101CA000BDE8F0816906080EFFF7C0FFFFF748FFA7
:101CB00018B9FFF726FF0120F2E73046FFF7B6FF1D
:101CC000FFF73EFF4FF000040CE018F80400FFF7A8
:101CD000ADFFFFF735FF18B9FFF713FF0020DFE76F
:101CE00004F10104BC42F0DBFFF70BFF0020D7E753
:101CF00070B505464FF000046648006820F070405B
:101D0000644908600846006840F0004008604FF0F1
:101D1000000619E04FF0000061490860FFF7B2FECD
:101D20004FF001005D49C1F898014FEA44604FEA65
:101D300010645C48006810B104F10100C4B2FFF700
:101D4000A1FE06F10100C6B2082EE3DB15B1FFF7D4
:101D500027FF01E0FFF747FF204670BD2DE9F04166
:101D600006460F4614461D46FFF7A8FE10B901208F
:101D7000BDE8F0817106080EFFF758FFFFF7E0FE9F
:101D800018B9FFF7BEFE0120F2E73846FFF74EFF15
:101D9000FFF7D6FEFFF792FE012101EB4601C8B224
:101DA000FFF744FFFFF7CCFE0FE0012C04D1002029
:101DB000FFF79EFF287003E00120FFF799FF2870CE
:101DC00005F10105A4F10100C4B2002CEDD1FFF72B
:101DD00098FE0020CCE770B505460E464FF0000493
:101DE000FFF76CFE2846FFF721FF04F10104FFF71F
:101DF000A7FE3046FFF71AFF04F10104FFF7A0FE2B
:101E0000FFF75CFE681CC0B2FFF710FF04F101048D
:101E1000FFF796FE0020FFF76BFF0446FFF771FE09
:101E2000204670BD2DE9F04180460F4615461E46FE
:101E30004FF00004FFF742FE4046FFF7F7FEFFF7C2
:101E40007FFE3846FFF7F2FEFFF77AFEFFF736FE19
:101E500008F10100C0B2FFF7E9FEFFF771FE00BF15
:101E60000EE0681EA04204D00120FFF741FF30556C
:101E700003E00020FFF73CFF305504F10100C4B23D
:101E8000AC42EEDBFFF73DFE2046BDE8F0810000EE
:101E900000100240000C01409C8121420080214240
:101EA000988121421C8121422DE9F04180460D4656
:101EB00016461F464FF00004FFF700FE4046FFF7AE
:101EC000B5FEFFF73DFE2846FFF7B0FEFFF738FEF0
:101ED00000BF07E0385DFFF7A9FEFFF731FE04F110
:101EE0000100C4B2B442F5DBFFF70BFE0120BDE8F0
:101EF000F08170B505460E46144631462846FFF778
:101F00006AFF2070012070BD37B504460D4602AB54
:101F10004FF0010229462046FFF7C6FF3EBD2DE9DE
:101F2000F8430746884614461D46089E6A464146C1
:101F30003846FFF7DEFF68B304F101004FF0FF0100
:101F400001FA00F0C4F108012944A1F101014FF0A8
:101F5000FF0242FA01F240EA020000F0FF09C5F177
:101F6000080006FA00F0C6B2C4F1070046FA00F60F
:101F70009DF8000000EA090000909DF8000040EA8A
:101F8000060000909DF8002041463846FFF7BCFF50
:101F9000BDE8F8830020FBE7F8B506460F46144677
:101FA0001D466A4639463046FFF7A3FF45B14FF05C
:101FB000010000FA04F09DF8001040EA010007E07B
:101FC0004FF0010000FA04F09DF8001021EA000033
:101FD000C0B200909DF8002039463046FFF794FFCC
:101FE000F8BD000038B50446F94890F82400D0B197
:101FF0001CB14FF00200009002E04FF00000009092
:10200000F34A1268D17BF24A526810786B4601227B
:10201000FFF73CFE10B14FF0FF3038BD9DF80010C7
:10202000EB48417425E0EA48807A10B94FF0FF3060
:10203000F3E724B1E648407C08B10020EDE71CB18D
:102040004FF00100009002E04FF000000090E04AE5
:102050001268D17BDE4A526810786B460122FFF786
:1020600015FE10B14FF0FF30D7E79DF80010D848AB
:1020700041740020D1E738B54FF000041AE0D4488D
:102080000068C07AA04204D0D1480068407DA042D8
:1020900000D10CE0CE49496808786B460122214600
:1020A000FFF75CFE10B14FF0FF3038BD00BF04F108
:1020B0000100C4B2C64840680079A042DFDC0020BD
:1020C000F3E770B504460D46C1480068C07AA042E7
:1020D00004D0BF480068407DA04202D14FF0FF30DD
:1020E00070BDBB4840680079A04202DC4FF0FF3071
:1020F000F6E7B749496808782B4601222146FFF7E1
:102100002DFEEDE738B50446B14890F82300A04213
:1021100001D1002038BD1CB14FF03000009002E02A
:102120004FF000000090AA48807C20B19DF800008C
:1021300040F002000090A64890F8220020B19DF8DF
:10214000000040F080000090A14A1268117DA04A72
:10215000526810786B460122FFF798FD10B14FF0DE
:10216000FF30D7E79A4880F823400020D2E738B5FF
:10217000044614F0700F03D04FF00100009007E008
:102180001CB14FF00000009002E04FF040000090C2
:102190008F4A1268917C8E4A526810786B460122F1
:1021A000FFF774FD30B14FF00001894881724FF0A4
:1021B000FF3038BD9DF8000020F0400184480173D5
:1021C0004FF00000009014F0400F04D19DF8000083
:1021D00040F00400009014F0200F04D19DF800009E
:1021E00040F00200009014F0100F04D19DF80000A0
:1021F00040F00100009014F0080F04D19DF8000099
:1022000040F038000090724A1268D17C704A5268DF
:1022100010786B460122FFF739FD30B14FF0000115
:102220006B4881724FF0FF30C3E724B1082C02D015
:102230000020FFF767FF664884724FF000010175C8
:102240004FF03200FEF762F80020B2E738B50446DE
:102250005F48807CA04201D1002038BD002C48D0CE
:102260005B4A126811795A4A526810786B4601220B
:10227000FFF774FD10B14FF0FF30EEE79DF800005E
:1022800020F020000090524A12681179504A52689A
:1022900010786B464FF00102FFF7F8FC10B14FF0D9
:1022A000FF30DAE70320FEF731F84FF0020000902C
:1022B000474890F8220020B19DF8000040F08000CF
:1022C0000090434890F8230020B19DF8000040F0B2
:1022D000300000903E4A1268117D3D4A52681078E5
:1022E0006B460122FFF7D2FC002853D04FF0FF309D
:1022F000B3E7374A12681179354A526810786B464D
:102300000122FFF72BFD10B14FF0FF30A5E7304859
:10231000807A10F0010F05D09DF8000040F02000F9
:10232000009004E09DF8000020F020000090284A72
:1023300012681179264A526810786B460122FFF71D
:10234000A5FC10B14FF0FF3087E70320FDF7DEFF5B
:102350001F4890F8220018B14FF08000009002E072
:102360004FF0000000901A4890F8230020B19DF82B
:10237000000040F030000090154A1268117D144AA8
:10238000526810786B460122FFF780FC10B14FF0C5
:10239000FF3062E70E48847400205EE708B50C4801
:1023A000807A10B94FF0FF3008BD4FF00000009068
:1023B000074A1268D17B064A526810786B464FF084
:1023C0000102FFF763FC28B14FF0FF30ECE700009B
:1023D00038010020FA4A12685179F94A5268107897
:1023E0006B460122FFF752FC10B14FF0FF30DBE7E4
:1023F000F34A12681179F24A526810786B4601224A
:10240000FFF744FC10B14FF0FF30CDE7EC4890F8F7
:10241000240000285AD04FF00C000090E84A1268BF
:102420001179E74A526810786B464FF00102FFF7C6
:102430002DFC10B14FF0FF30B6E73220FDF766FFFC
:102440004FF0C0000090DE48807A10F0010F04D0F9
:102450009DF8000040F020000090D94A12681179E0
:10246000D74A526810786B460122FFF70FFC10B173
:102470004FF0FF3098E7D248407C18B14FF002008F
:10248000009002E04FF000000090CD4A1268D17B2E
:10249000CB4A526810786B460122FFF7F7FB10B168
:1024A0004FF0FF3080E74FF000000090C44A126800
:1024B0005179C34A526810786B464FF00102FFF71A
:1024C000E5FB00285BD04FF0FF306DE74FF00400D4
:1024D0000090BB4A12681179B94A526810786B466D
:1024E0004FF00102FFF7D2FB10B14FF0FF305BE776
:1024F000B348807C20B9B248807A10F0010F03D134
:102500004FF04000009002E04FF060000090AC4AB5
:1025100012681179AA4A526810786B460122FFF7B7
:10252000B5FB10B14FF0FF303EE73220FDF7EEFE75
:10253000A348407C18B14FF00100009002E04FF03A
:10254000000000909E4A1268D17B9D4A5268107824
:102550006B460122FFF79AFB10B14FF0FF3023E7E3
:10256000974A12685179964A52681078944B103302
:102570000122FFF78BFB10B14FF0FF3014E7002072
:1025800012E770B504464FF0000624F001048C48B1
:1025900090F8240008B1002070BD8948807A10B9F5
:1025A0004FF0FF30F8E78648057C807A00EA0400A7
:1025B000834908740846007CA04202D04FF0FF36E1
:1025C00001E04FF0000614B97D48007D18B10120EC
:1025D000FFF708FD02E00020FFF704FD3CB1FFF724
:1025E000DDFE20B1764805744FF0FF30D4E7304669
:1025F000D2E738B504467248807A10B94FF0FF3000
:1026000038BDBC2C03DB4FF0010000901AE0622CB7
:1026100003DB4FF00200009014E02A2C03DB4FF0A4
:10262000030000900EE0142C03DB4FF00400009038
:1026300008E00A2C03DB4FF00500009002E04FF0A9
:10264000060000905E48C07A9DF80010884201D1D3
:102650000020D5E75A4A12689178594A5268107892
:102660006B460122FFF712FB10B14FF0FF30C7E7B6
:102670009DF800105248C1720020C1E738B50446E9
:10268000282C02DD4FF0FF3038BDFCB90020FFF7E9
:1026900039FD4FF000008DF800004FF007008DF875
:1026A0000100474A1268917C454A526810786B468F
:1026B0004FF00202FFF7EAFA10B14FF0FF30E3E704
:1026C0004FF000013E4801750846DDE70120FFF7A5
:1026D00019FD4FF020008DF80000012C08D14FF0BB
:1026E00000008DF801004FF00500FFF782FF1DE0AC
:1026F000052C08DC4FF001008DF801004FF00500BB
:10270000FFF777FF12E0142C08DC4FF002008DF881
:1027100001004FF00A00FFF76CFF07E04FF00300E5
:102720008DF801004FF01400FFF763FF9DF80100E2
:102730004FF0070101EB8010C0B28DF80100204A74
:102740001268917C1E4A526810786B464FF0020264
:10275000FFF79CFA10B14FF0FF3095E74FF00801FA
:10276000174881724FF0000101734FF001010175AC
:102770004FF00000FFF705FF002085E738B504465D
:102780000F48807A10B94FF0FF3038BD0C4890F8F0
:10279000240010B14FF0FF30F7E70948007D50B139
:1027A00034B1282C04DCE0B2FFF768FF0020ECE72E
:1027B0000020FFF763FF042C04DA4FF0040406E066
:1027C00038010020B4F57A7F01DD4FF47A744FF4BC
:1027D0007A7090FBF4F0A0F10100C0B20090FE4AC4
:1027E00012685178FC4A526810786B464FF001022B
:1027F000FFF74CFA10B14FF0FF30C6E79DF800002C
:1028000000F101004FF47A7191FBF0F081B2F248CF
:10281000C1810146C9894FEA6100FFF7EAFE002045
:10282000B3E738B50446EC48807A10B94FF0FF3072
:1028300038BD022C06D0042C08D0082C0AD0102C4D
:1028400010D10BE04FF0000000900EE04FF00800B8
:1028500000900AE04FF01000009006E04FF01800E2
:10286000009002E04FF0FF30E2E700BFDA48407A24
:102870009DF80010B0EBE10F01D10020D8E7D64A57
:102880001268D179D44A526810786B460122FFF75A
:10289000FDF910B14FF0FF30CAE79DF800004FEA94
:1028A000E001CD4841724FF00000C1E738B5044661
:1028B000C948807A10B94FF0FF3038BDFA2C09D0E2
:1028C000B4F5FA7F0AD0B4F57A7F0BD0B4F5FA6F7D
:1028D00010D10BE04FF0000000900EE04FF0080028
:1028E00000900AE04FF01000009006E04FF0180052
:1028F000009002E04FF0FF30DFE700BFB648007AFB
:102900009DF80010B0EBE10F01D10020D5E7B24AED
:1029100012689179B04A526810786B460122FFF72D
:10292000B5F910B14FF0FF30C7E79DF800004FEA4E
:10293000E000A94908724FF00000BEE71CB54FF057
:1029400080008DF80000A44A1268917CA24A526867
:1029500010786B464FF00102FFF798F910B14FF075
:10296000FF301CBD6420FDF7D1FC4FF000008DF856
:102970000000994A1268917C974A526810786B4619
:102980004FF00102FFF782F910B14FF0FF30E8E796
:10299000914A1268917D904A526810786B460622DF
:1029A000FFF7DCF910B14FF0FF30DAE79DF80500D2
:1029B0004FEAC0704FEA50709DF8031001F001011A
:1029C00040EA41009DF8011001F0010140EA0104D4
:1029D0009CB1012C03D121467F48C17434E0022C04
:1029E00004D14FF000017C48C1742DE021467BA04A
:1029F00002F0FAFE4FF0FF30B3E7774A1268D17861
:102A0000754A526810786B460122FFF7A7F910B19A
:102A10004FF0FF30A5E79DF8000000F00F042CB93F
:102A2000784802F0E1FE4FF0FF309AE7042C07D11E
:102A300075A002F0D9FE4FF001016748C17403E0B0
:102A40004FF000016448C1744FF0FF016248817289
:102A500008466149087201465F484172C1724FF6EB
:102A6000FF71C1814FF0FF01017481744FF00101CA
:102A7000017380F822104FF0000180F82310417597
:102A8000017500F10800C0F80E10C0F81210C0F86F
:102A90001610514880F8241080F82510C1844FF496
:102AA000FA60FFF703FF10B14FF0FF3059E7022043
:102AB000FFF7B7FE10B14FF0FF3052E72A20FFF7C3
:102AC00098FD10B14FF0FF304BE73220FFF756FE74
:102AD00010B14FF0FF3044E70020FFF752FD10B176
:102AE0004FF0FF303DE70020FFF7B0FB10B14FF093
:102AF000FF3036E70020FFF73AFB002031E77CB5D6
:102B000004460D463448807A10F0700F02D14FF021
:102B1000FF307CBD304A1268117B2F4A5268107812
:102B20006B460622FFF71AF910B14FF0FF30F0E7BD
:102B30009DF801009DF8001040EA012000B22080BD
:102B40009DF803009DF8021040EA012000B2608069
:102B50009DF805009DF8041040EA012000B2A08015
:102B600015B12846FEF797FF0020D2E77CB5044652
:102B70000D461948807A10F0080F02D14FF0FF304F
:102B80007CBD154A1268517B134A526810786B4617
:102B90000622FFF7E3F810B14FF0FF30F0E79DF8A1
:102BA00001009DF8001040EA012000B220809DF84D
:102BB00003009DF8021040EA012000B260809DF8F9
:102BC00005009DF8041040EA012000B2A08015B174
:102BD0002846FEF760FF27E038010020556E737528
:102BE00070706F7274656420736F6674776172655C
:102BF0002070726F64756374207265762025642E70
:102C00000A0000002487000848616C662073656E26
:102C10007369746976697479207061727420666F63
:102C2000756E642E0D0A00000020A9E72DE9FE4F05
:102C300005460C46FA48807A18B94FF0FF30BDE8D7
:102C4000FE8FF74A1268917BF54A5268107802AB02
:102C50000222FFF783F810B14FF0FF30EFE79DF845
:102C600009009DF8081040EA012006B214B1204680
:102C7000FEF711FFEA494968C88805F0E5FAE84916
:102C800001904968B1F9080005F0C6FA834630465C
:102C900005F0C2FA5946009005F02CFC82460199D5
:102CA00005F088F98146DF4905F016F980464FF0B6
:102CB0008F4105F011FB074605F072FA28600020ED
:102CC000BDE710B588B004461CB94FF0FF3008B01E
:102CD00010BD206828B9606818B9A06808B900203C
:102CE000F5E7CF494968087806AB03221146FFF79C
:102CF00035F810B14FF0FF30E9E79DF818004FF0BC
:102D0000080101EB201000F00F00ADF800009DF865
:102D1000190001EB201000F00F00ADF802009DF843
:102D20001A0001EB201000F00F00ADF8040020683D
:102D30004FEA4001BDF9000000F1400091FBF0F0C6
:102D400000B2ADF8100060684FEA4001BDF9020022
:102D500000F1400091FBF0F000B2ADF81200A06865
:102D60004FEA4001BDF9040000F1400091FBF0F092
:102D700000B2ADF81400AA494968087806AB4FF0D4
:102D800006021146FEF7EAFF10B14FF0FF309EE752
:102D90009DF819009DF8181040EA012000B2ADF826
:102DA00008009DF81B009DF81A1040EA012000B2AF
:102DB000ADF80A009DF81D009DF81C1040EA0120A6
:102DC00000B2ADF80C00BDF81000BDF808100844C2
:102DD00000B2ADF81000BDF81200BDF80A100844AA
:102DE00000B2ADF81200BDF81400BDF80C10084494
:102DF00000B2ADF81400BDF810004FEA10208DF8B5
:102E00001800BDF81000C0B28DF81900BDF812000E
:102E10004FEA10208DF81A00BDF81200C0B28DF8EC
:102E20001B00BDF814004FEA10208DF81C00BDF8FF
:102E30001400C0B28DF81D0079494968087806ABC6
:102E40004FF006021146FEF721FF10B14FF0FF30A0
:102E50003DE700203BE701467148007A30B1012888
:102E600008D002280AD0032810D10BE04FF0FA0056
:102E700008800FE04FF4FA7008800BE04FF47A708E
:102E8000088007E04FF4FA60088003E04FF000008C
:102E9000088000BF00BF0020704701466048407AAC
:102EA00030B1012808D002280AD0032810D10BE045
:102EB0004FF0020008700EE04FF0040008700AE0C6
:102EC0004FF00800087006E04FF01000087002E0B4
:102ED0004FF0FF30704700BF5148C07C28B10878E0
:102EE0004FEA40604FEA106008700020F2E70146A8
:102EF0004B48C07A08281DD2DFE800F01D04080CFA
:102F00001014181E4FF0BC00088019E04FF062004A
:102F1000088015E04FF02A00088011E04FF01400FF
:102F200008800DE04FF00A00088009E04FF005002E
:102F3000088005E000BF00BF4FF00000088000BF20
:102F400000BF002070470146354890F8240010B1BA
:102F50004FF0FF3070473248C08908800020F9E701
:102F600001464FF0000008804FF0FF3070470146E7
:102F70004FF0FF30704701462948007A30B10128F0
:102F800007D0022808D003280CD108E026480860A2
:102F90000BE02648086008E02548086005E0254861
:102FA000086002E04FF0FF30704700BF0020FBE7F1
:102FB00001461B48407A30B1012808D002280AD0C7
:102FC000032810D10BE04FF4804008800EE041F65A
:102FD0009C7008800AE04FF48050088006E04FF4AF
:102FE0000060088002E04FF0FF30704700BF0C48DF
:102FF000C07C18B108884FEA600008800020F4E720
:1030000001460748007C08704FF0000070470146F9
:103010000348807A80B14FF0010008700FE0000093
:103020003801002000000C420000034300008342EE
:1030300033330342333383414FF0000008700020E4
:10304000704738B50446F748807A10B94FF0FF3022
:1030500038BDF44A1268117CF24A526810786B4607
:103060000222FEF77BFE10B14FF0FF30F0E79DF833
:1030700001009DF8001040EA012000B220804FF0CE
:103080000000E5E72DE9FE4F0746884692461D46BB
:10309000DDF830B04FF000063446E24890F82400E6
:1030A00010B1601EBDE8FE8F4FF000002870DD48B3
:1030B000807A10B94FF0FF30F4E7DA48007C10B99D
:1030C0004FF0FF30EEE7D748007C10F0400F02D001
:1030D00006F10200C6B2D348007C10F0200F02D0E7
:1030E00006F10200C6B2CF48007C10F0100F02D0EB
:1030F00006F10200C6B2CB48007C10F0080F02D0E7
:1031000006F10600C6B2C74A1268917AC54A5268EB
:1031100010786B460222FEF721FE10B14FF0FF300F
:10312000C0E79DF801009DF8001040EA0129B14573
:1031300001DA0020B6E7BB4840684088B9EB600F71
:1031400017DDB84A1268517CB64A526810786B464F
:103150000122FEF703FE10B14FF0FF30A2E79DF809
:10316000000010F0100F04D0FFF718F96FF0010005
:1031700098E75046FEF78FFCAA4A1268D17AA94A0E
:10318000526810786B463246FEF7E8FD10B14FF0FA
:10319000FF3087E799FBF6F0A0F101008BF8000003
:1031A0004FF000002870B44230D09E48007C10F0F0
:1031B000080F2BD004F101001DF800001DF80410C9
:1031C00040EA012000B2A8F8000004F103001DF855
:1031D000001004F102001DF8000041EA002000B2D6
:1031E000A8F8020004F105001DF8001004F1040025
:1031F0001DF8000041EA002000B2A8F80400287879
:1032000040F00800287004F1060084B2B44215D0E2
:103210008448007C10F0400F10D004F101001DF82C
:1032200000001DF8041040EA012000B23880287820
:1032300040F04000287004F1020084B2B44215D07E
:103240007848007C10F0200F10D004F101001DF828
:1032500000001DF8041040EA012000B278802878B0
:1032600040F02000287004F1020084B2B44215D06E
:103270006C48007C10F0100F10D004F101001DF814
:1032800000001DF8041040EA012000B2B880287840
:1032900040F01000287004F1020084B2002001E721
:1032A000F8B504460F4616465E4890F8240010B95B
:1032B0004FF0FF30F8BD5B48807A10B94FF0FF3017
:1032C000F8E7584A1268917A564A526810786B4665
:1032D0000222FEF743FD10B14FF0FF30EAE79DF800
:1032E00001009DF8001040EA0125A54205DA4FF0E3
:1032F000000030704FF0FF30DCE74A4840684088FB
:10330000B5EB600F17DD474A1268517C454A526899
:1033100010786B460122FEF721FD10B14FF0FF300F
:10332000C8E79DF8000010F0100F04D0FFF736F842
:103330006FF00100BEE73B4A1268D17A394A526801
:1033400010783B46E2B2FEF709FD10B14FF0FF30B6
:10335000B0E795FBF4F0A0F1010030704FF00000F1
:10336000A8E701462F4880F822104FF00000704770
:103370007CB505462B494968087801AB4FF004023B
:103380004FF00D01FEF7EAFC08B107207CBD9DF867
:103390000700C0F301109DF8041001F0E00140EABD
:1033A000E1008DF800009DF80700C0F381009DF852
:1033B000051001F0E00140EAE1008DF801009DF800
:1033C000070000F003009DF8061001F0E00140EA5C
:1033D000E1008DF802004FF000041FE01DF804002A
:1033E00020B94FF0000045F8240014E00E4845F8DD
:1033F000240006E055F824000C4904F06DFF45F860
:1034000024001DF80400A0F1010010F0FF000DF8E9
:103410000400EFD100BF04F10100C4B2032CDDDBD6
:103420000020B3E7380100207B14AE3E1D5A843FD4
:103430002DE9FE4F06460F464FF000056846FFF7A0
:1034400097FF2C4648E056F8240057F82410B0EBBC
:10345000010A01D4514601E0CAF10001084604F016
:10346000DBFE83464FF08F4104F0A4FD80465DF8FB
:1034700024004FF0000104F05FFE19D05DF8241025
:10348000404604F097FD82464FF07E5105F032F839
:10349000814629F0004AFB48416A504604F0EFFF9C
:1034A00018D24FF0010000FA04F040EA050511E0DF
:1034B000F448C169404604F0DBFE05D3F148016AD7
:1034C000404604F0DCFF05D24FF0010000FA04F0A2
:1034D00040EA050504F10104032CB4DB2846BDE8ED
:1034E000FE8F2DE9FC5F06460F464FF00005E649CA
:1034F0004968087801AB4FF003024FF00D01FEF769
:103500002DFC10B10720BDE8FC9F9DF8040000F0E1
:103510001F008DF804009DF8050000F01F008DF8D5
:1035200005009DF8060000F01F008DF806004FF022
:1035300000045DE056F8240057F82410B0EB010BAE
:1035400001D4594601E0CBF10001084604F064FEC5
:103550004FF08F41009004F02DFD814601A8005DE1
:1035600088B3C849086804F06FFE83465946C748C7
:1035700004F020FD804604E0C549404604F0ACFE5E
:10358000804601A8005DA0F1010010F0FF0001A934
:103590000855F1D14146484604F00CFD83464FF0F2
:1035A0007E5104F0A7FF82462AF0004BB54881699E
:1035B000584604F064FF19D24FF0010000FA04F0FD
:1035C00040EA050512E0FFE7AE480169484604F00D
:1035D0004FFE05D3AB484169484604F050FF05D281
:1035E0004FF0010000FA04F040EA050504F101047F
:1035F000032C9FDB284686E72DE9F04F93B0054664
:103600000C4617464FF001008DF820004FF00000E7
:103610008DF821009C4A1268917C9B4A5268107870
:1036200008AB4FF00202FEF731FB20B14FF0FF3044
:1036300013B0BDE8F08FC820FCF768FE4FF0000023
:103640008DF82000904A1268D17B8F4A526810781A
:1036500008AB4FF00102FEF719FB10B14FF0FF303D
:10366000E6E7894A12685179874A5268107808ABB0
:103670000122FEF70BFB10B14FF0FF30D8E7824A72
:103680001268917C804A5268107808AB0122FEF7DC
:10369000FDFA10B14FF0FF30CAE77B4A1268D17DC6
:1036A000794A5268107808AB0122FEF7EFFA10B1A0
:1036B0004FF0FF30BCE7744A12681179724A5268C1
:1036C000107808AB0122FEF7E1FA10B14FF0FF309D
:1036D000AEE74FF00C008DF820006B4A12681179AC
:1036E000694A5268107808AB4FF00102FEF7CEFA33
:1036F00010B14FF0FF309BE70F20FCF707FE624848
:10370000806A407A8DF820005F4A126891785E4A9C
:103710005268107808AB0122FEF7B8FA10B14FF0EA
:10372000FF3085E75848806A007A8DF82000564AB5
:1037300012685178544A5268107808AB0122FEF79B
:10374000A5FA10B14FF0FF3072E73FB14E48806AE2
:10375000807A40F0E0008DF8200004E04A48806A5A
:10376000807A8DF82000484A12689179464A52685A
:10377000107808AB0122FEF789FA10B14FF0FF3044
:1037800056E73FB14048806AC07A40F0E0008DF8CB
:10379000200003E03B48C07A8DF820003A4A1268C6
:1037A000D179394A5268107808AB0122FEF76EFAD7
:1037B00010B14FF0FF303BE717B1C820FCF7A6FD72
:1037C0004FF040008DF820002F4A126811792E4AE0
:1037D0005268107808AB4FF00102FEF757FA10B1AB
:1037E0004FF0FF3024E74FF078008DF82000264A94
:1037F00012685179244A5268107808AB4FF00102E0
:10380000FEF744FA10B14FF0FF3011E71D498889E7
:10381000FCF77CFD4FF000008DF820001A4A12687A
:103820005179194A5268107808AB4FF00102FEF73F
:103830002DFA10B14FF0FF30FAE6134A1268917A70
:10384000114A5268107808AB0222FEF787FA10B1CD
:103850004FF0FF30ECE69DF821009DF8201040EA83
:10386000012006904FF00C01069890FBF1F0C6B2D3
:103870004FF00000A86068602860A0606060206071
:1038800007906EE0FC8600083801002000B04C452F
:1038900054E3853FF74A1268D17AF64A52681078A5
:1038A00008AB0C22FEF75AFA10B14FF0FF30BFE61A
:1038B0009DF821009DF8201040EA012000B2ADF8EB
:1038C00010009DF823009DF8221040EA012000B26C
:1038D000ADF812009DF825009DF8241040EA012063
:1038E00000B2ADF81400BDF9101020680844206043
:1038F000BDF91210606808446060BDF91410A0683A
:103900000844A0609DF827009DF8261040EA012099
:1039100000B2ADF808009DF829009DF8281040EA93
:10392000012000B2ADF80A009DF82B009DF82A1086
:1039300040EA012000B2ADF80C00BDF9081028687B
:1039400008442860BDF90A10686808446860BDF939
:103950000C10A8680844A860079800F10100C0B2E4
:1039600007900798B04295DBC34800680390D5F8EC
:1039700000804FEAE870102212904046129901F040
:10398000E8FECDE900010023039A01F008FF32466A
:103990000023CDE9040101F002FF2860B648006869
:1039A0000390D5F804904FEAE97010221190484630
:1039B000119901F0CEFECDE900010023039A01F038
:1039C000EEFE32460023CDE9040101F0E8FE686016
:1039D000A94800680390D5F808A04FEAEA701022C1
:1039E00010905046109901F0B4FECDE9000100237B
:1039F000039A01F0D4FE32460023CDE9040101F020
:103A0000CEFEA8609C4840680390D4F800B04FEA0E
:103A1000EB7010220F9058460F9901F09AFECDE9F5
:103A200000010023039A01F0BAFE32460023CDE9DB
:103A3000040101F0B4FE20608F4840680390606884
:103A4000C1171022CDE90D1001F083FECDE9000170
:103A50000023039A01F0A3FE32460023CDE90401BE
:103A600001F09DFE6060844840680390A068C11723
:103A70001022CDE90B1001F06CFECDE9000100230E
:103A8000039A01F08CFE32460023CDE9040101F0D7
:103A900086FEA060A068002804DDA068A0F5803044
:103AA000A06003E0A06800F58030A0600020BFE5C2
:103AB00038B504466F4890F82400A04201D1002098
:103AC00038BD44B36B4890F8250010B94FF0FF3073
:103AD000F6E70020FEF786FA0020FEF7B7FB6549FF
:103AE000C88CFEF74BFE4FF000000090614949681A
:103AF00008786B464FF001024FF02301FEF7C6F83D
:103B00004FF001015B4880F824100846FEF76AFA7E
:103B1000FEF744FC14E00020FEF764FA5548007CF0
:103B200000905449496808786B4601222321FEF72A
:103B3000ADF84FF000014F4880F82410FEF72EFC3E
:103B40000020BDE72DE9F04F8DB083460F464FF0C2
:103B500002000C90474890F8240028B10020FFF79D
:103B6000A7FF4FF0010601E04FF0000603A8FFF7A2
:103B700072F905A8FFF791F901A8FFF7B8F902A8B3
:103B8000FFF7E1F93B4890F80AA004A8FFF738FADC
:103B90004FF0000408E0002239465846FFF72CFD9C
:103BA00000B903E004F10104022CF4DB00BF022C95
:103BB00002D14FF000052CE04FF0000408E0012294
:103BC00006A909A8FFF718FD00B903E004F10104F4
:103BD000022CF4DB00BF022C02D14FF0000518E0EC
:103BE00006A93846FFF724FC00F0FF0809A958464B
:103BF000FFF777FC00F0FF094FF00005B9F1000F67
:103C000001D145F00105B8F1000F01D145F00205E1
:103C100000BF4FF0FF001749087201461548417276
:103C2000C1724FF6FF71C1814FF0FF0181720174C3
:103C30004FF001010173BDF80C00FEF737FE9DF84F
:103C40001400FEF7EEFDBDF80400FEF7D2FCBDF84F
:103C50000800FEF793FD5046FEF789FA9DF8100024
:103C6000FEF78FFC16B10120FFF722FF28460DB0AA
:103C7000BDE8F08F38010020FC860008F8B5044646
:103C80000D46164616B94FF0FF30F8BDFE48807A53
:103C900010B94FF0FF30F8E74FEA24208DF800000C
:103CA000E0B28DF801009DF801002844F64949680A
:103CB0004989884202DD4FF0FF30E6E7F24A126898
:103CC000117EF14A526810786B460222FDF7DEFF42
:103CD00010B14FF0FF30D8E7EB4A1268517DEA4A45
:103CE000526810783346EAB2FDF7D0FF10B14FF0BA
:103CF000FF30CAE70020C8E7F8B504460D4616466F
:103D000016B94FF0FF30F8BDDF48807A10B94FF098
:103D1000FF30F8E74FEA24208DF80000E0B28DF87C
:103D200001009DF801002844D74949684989884223
:103D300002DD4FF0FF30E6E7D34A1268117ED24A27
:103D4000526810786B460222FDF7A0FF10B14FF0C9
:103D5000FF30D8E7CC4A1268517DCB4A52681078C0
:103D60003346EAB2FDF7FAFF10B14FF0FF30CAE771
:103D70000020C8E72DE9F04385B005460E46904681
:103D80009946C14890F8250020B14FF0FF3005B0AA
:103D9000BDE8F08316B94FF0FF30F8E74FF00004AC
:103DA00027E0281B102802DD4FF0100001E0A5EBF2
:103DB000040087B206EB040239462046FFF75EFF97
:103DC00010B14FF0FF30E2E701AA39462046FFF775
:103DD00093FF10B14FF0FF30D9E730193A4601A9EF
:103DE00001F090FE10B16FF00100D0E704EB070086
:103DF00084B2AC42D5DB4FEA28208DF8000008F0F1
:103E0000FF008DF80100A04A1268917E9E4A526818
:103E100010786B464FF00202FDF738FF10B14FF0FB
:103E2000FF30B4E74FF00101974880F82510A0F863
:103E300026904FF00000AAE70146934890F824002E
:103E400008704FF00000704702464FF0FF30704797
:103E500001464FF0FF307047F8B505460F4614464F
:103E6000002C79D0B5F5FF5F02DD4FF0FF0606E0CC
:103E7000202D02DA4FF0010601E0C5F347160FB915
:103E80004FF00107282C02DD4FF0FF30F8BD7E48CF
:103E9000407D38BB7C4890F8240040B10020FFF7FB
:103EA00007FE4FF00101784880F8201004E04FF041
:103EB0000001754880F8201073481630FEF7CBFFDC
:103EC00071481830FEF7E9FF6F481A30FFF70FF816
:103ED0006D481C30FFF737F86B48817A81771F30C7
:103EE000FFF78EF80020FEF77DF80020FEF7C6FBF6
:103EF0004FF000008DF80000634A12689178624A22
:103F0000526810786B464FF00102FDF7BFFE10B10A
:103F10004FF0FF30BAE74FF040008DF800005A4AEA
:103F20001268D17B584A526810786B464FF00102F4
:103F3000FDF7ACFE00B172E08DF800608DF8017005
:103F4000514A1268117A504A526810786B46022220
:103F5000FDF79CFE08B162E052E00520FCF7D6F9BF
:103F60004948407A4FF0070101EBC000C0B28DF81C
:103F70000000454A1268D179434A526810786B466E
:103F80004FF00102FDF782FE00B148E04FF0200043
:103F90008DF80000012C04D14FF000008DF80100D5
:103FA00011E0052C04DC4FF001008DF801000AE05F
:103FB000142C04DC4FF002008DF8010003E04FF0F8
:103FC00003008DF801009DF801004FF0070101EB9F
:103FD0008010C0B28DF801002B4A1268917C2A4AE9
:103FE000526810786B464FF00202FDF74FFE00B1A9
:103FF00015E04FF00101244841754FF0000045E7FE
:10400000214A16324FF0000104E0505C00B106E096
:1040100001F101010C29F8D34FF0FF3036E74FF0E2
:10402000FF0019490872014617484172C1724FF6E4
:10403000FF71C1814FF0FF01817201744FF00101E6
:1040400001730146887FFEF792F80F49C88AFEF790
:104050002DFC0D49087EFEF7E4FB0B49488BFEF76B
:10406000C8FA0949888BFEF789FB0749C87FFEF724
:1040700088FA054890F8200010B10120FFF718FDDC
:104080004FF00001004801E038010020417508466A
:10409000FCE6000010B5C8234FF48062F94940F6F1
:1040A000F630FFF767FE10BD10B586B00446F6A0E7
:1040B00000680390F5A000680290F5A000680190E8
:1040C000F4A00068009004F0030003A9085C8DF8D8
:1040D000140003A8C4F3C101405C8DF8150003A8C7
:1040E000C4F38111405C8DF8160004F0030002A9AE
:1040F000085C8DF8100002A8C4F3C101405C8DF883
:10410000110002A8C4F38111405C8DF8120005AAC9
:104110004FF0030140F22640FFF7B0FD18B14FF019
:10412000FF3006B010BD04AA032140F22A40FFF779
:10413000A5FD10B14FF0FF30F3E70198059000980E
:10414000049014F0040F0BD09DF8140040F001000F
:104150008DF814009DF8100040F001008DF810005B
:1041600014F0200F0BD09DF8150040F001008DF8E1
:1041700015009DF8110040F001008DF8110014F4B5
:10418000807F0BD09DF8160040F001008DF81600DE
:104190009DF8120040F001008DF8120005AA0321DD
:1041A0004FF48860FFF76AFD10B14FF0FF30B8E7B9
:1041B00004AA032140F23140FFF760FD10B14FF037
:1041C000FF30AEE7B44804810020AAE72DE9FF479D
:1041D0000446B148008900F0030054F82000019023
:1041E000AD48008910F0040F03D00198C0F1000021
:1041F0000190A9480089C0F3C10054F82000029042
:10420000A548008910F0200F03D00298C0F10000EB
:104210000290A1480089C0F3811054F82000039057
:104220009D48008910F4807F03D00398C0F10000FE
:1042300003909A49019880FB015A1E222846514654
:1042400001F09AFA01909549029880FB01671E22BD
:104250003046394601F090FA02909049039880FB6D
:1042600001891E224046494601F086FA03900198D2
:104270004FEA10608DF8000001984FEA10408DF869
:10428000010001984FEA10208DF802000198C0B299
:104290008DF803006A464FF004014FF47470FFF785
:1042A000EDFC20B14FF0FF3004B0BDE8F08702987C
:1042B0004FEA10608DF8000002984FEA10408DF828
:1042C000010002984FEA10208DF802000298C0B257
:1042D0008DF803006A464FF004014FF47570FFF744
:1042E000CDFC10B14FF0FF30DEE703984FEA1060CD
:1042F0008DF8000003984FEA10408DF801000398F4
:104300004FEA10208DF802000398C0B28DF8030028
:104310006A464FF004014FF47670FFF7AFFCC3E735
:104320002DE9F04F8BB0064601A8FEF741FEBDF81F
:10433000047000200F2208903846089901F009FA0D
:1043400004460D465448008900F0030056F820004A
:1043500005905148008910F0040F03D00598C0F172
:10436000000005904C480089C0F3C10056F82000B9
:1043700006904948008910F0200F03D00698C0F13C
:104380000000069044480089C0F3811056F82000D0
:1043900007904148008910F4807F03D00798C0F14E
:1043A000000007900598C117A0FB048201FB0421BF
:1043B00000FB05101E220A9040460A9901F0DCF924
:1043C00005900698C117A0FB049201FB042100FB95
:1043D000051A1E224846514601F0CEF9069007986C
:1043E000C117A0FB04B201FB042100FB05101E2233
:1043F00009905846099901F0BFF9079005984FEACE
:1044000010608DF8080005984FEA10408DF80900FB
:1044100005984FEA10208DF80A000598C0B28DF873
:104420000B0006984FEA10608DF80C0006984FEAD2
:1044300010408DF80D0006984FEA10208DF80E0000
:104440000698C0B28DF80F0007984FEA10608DF8FB
:10445000100007984FEA10408DF8110007984FEAB6
:1044600010208DF812000798C0B28DF8130002AA30
:104470004FF00C014FF42570FFF700FC0BB0BDE8C6
:10448000F08F0000728700084CCD6C000CC92C0026
:1044900036567600264666006802002009E3CA0206
:1044A00030B585B00446F8A207CA02AB07C3C82CD2
:1044B00003DD4FF0FF3005B030BD4FF0C80090FB7A
:1044C000F4F0A0F1010085B24FEA15208DF800004C
:1044D000E8B28DF801006A464FF0020140F2162062
:1044E000FFF7CCFB10B14FF0FF30E4E702AA0C213C
:1044F00040F6C120FFF7C2FB10B14FF0FF30DAE702
:10450000E44884810020D6E70146E248808908809B
:104510004FF0000070472DE9FC4706460F4616F0A5
:10452000070F02D0B7F5C86F03DD4FF0FF30BDE8CD
:10453000FC87384603F088FE8146D74903F03AFDF0
:1045400080466846FEF7A9FC9DF80000022806D0C8
:10455000042816D0082826D0102848D135E04FF07E
:104560008D41404603F0B8FE814603F035FE84B22B
:10457000CA49404603F0B0FE814603F02DFE85B2E5
:1045800038E04FF08C41404603F0A6FE814603F030
:1045900023FE84B2C249404603F09EFE814603F0EA
:1045A0001BFE85B226E04FF08B41404603F094FE9F
:1045B000814603F011FE84B2BA49404603F08CFEF6
:1045C000814603F009FE85B214E04FF08A4140466F
:1045D00003F082FE814603F0FFFD84B2B2494046FB
:1045E00003F07AFE814603F0F7FD85B202E04FF05A
:1045F000FF309CE700BF4FEA24208DF80400E0B2B2
:104600008DF805004FEA25208DF80600E8B28DF8F8
:10461000070016F0010F14D001AA02214FF4EA702E
:10462000FFF72CFB10B14FF0FF3080E70DF10602D1
:1046300002214FF49270FFF721FB10B14FF0FF30D1
:1046400075E716F0020F14D001AA02214FF4EC70A6
:10465000FFF714FB10B14FF0FF3068E70DF10602D1
:1046600002214FF49470FFF709FB10B14FF0FF30B7
:104670005DE716F0040F14D001AA02214FF4EE708A
:10468000FFF7FCFA10B14FF0FF3050E70DF10602D2
:1046900002214FF49670FFF7F1FA10B14FF0FF309E
:1046A00045E7002043E738B504464FF0000000908E
:1046B00014F0010F04D09DF8000040F0300000908D
:1046C00014F0020F04D09DF8000040F00C000090A0
:1046D00014F0040F04D09DF8000040F00300009097
:1046E0006A4601214FF4A470FFF7C8FA38BD38B507
:1046F0000446012C02DA4FF0010403E0042C01DD32
:104700004FF00404A4F10100C0B200906A464FF0DB
:10471000010140F24F10FFF7B1FA38BD38B5044639
:104720004FF0050094FBF0F085B24FEA25208DF89C
:104730000000E8B28DF801006A464FF002014FF424
:10474000EF70FFF79BFA38BD38B504464FF005000F
:1047500094FBF0F085B24FEA25208DF80000E8B216
:104760008DF801006A464FF002014FF4ED70FFF73B
:1047700085FA38BDF8B505460E464FF47A7095FBBC
:10478000F0F000FB06F44FEA14608DF800004FEAE9
:1047900014408DF801004FEA14208DF80200E0B2B9
:1047A0008DF803006A464FF004014FF4AE70FFF736
:1047B00065FAF8BD38B504464FF0050094FBF0F0FB
:1047C00084B24FEA24208DF80000E0B28DF8010099
:1047D0006A464FF002014FF4AD70FFF74FFA38BD53
:1047E00038B504464FF0050094FBF0F084B24FEA70
:1047F00024208DF80000E0B28DF801006A464FF0E9
:1048000002014FF4AC70FFF739FA38BD38B50446F1
:1048100014B94FF0FF3038BD6A4604214FF4587088
:10482000FFF76AFA10B14FF0FF30F4E79DF800008F
:104830004FEA00609DF8011040EA01409DF8021027
:1048400040EA01209DF8031040EA010020604FF08B
:104850000000E0E738B504464FEA14608DF8000028
:104860004FEA14408DF801004FEA14208DF8020041
:10487000E0B28DF803006A464FF004014FF458701F
:10488000FFF7FCF938BD0000FEF2ABC4AAF1DFDF90
:10489000BBAFDFDF68020020000048430000404655
:1048A0000000C045000040450000C04438B5044643
:1048B00014B94FF0FF3038BD6A4604214FF47170CF
:1048C000FFF71AFA10B14FF0FF30F4E79DF800003F
:1048D0004FEA00609DF8011040EA01409DF8021087
:1048E00040EA01209DF8031040EA010000EB80003F
:1048F0004FEA800020604FF00000DCE738B5044646
:104900004FF01400B4FBF0F44FEA14608DF800008F
:104910004FEA14408DF801004FEA14208DF8020090
:10492000E0B28DF803006A464FF004014FF4717055
:10493000FFF7A4F938BD38B5044684B14FF0200024
:104940008DF800004FF028008DF801004FF0300086
:104950008DF802004FF038008DF8030004E0A32228
:104960000421684601F0FAF86A46042140F69E20C8
:10497000FFF784F9FDF712FD38BD38B5044684B160
:104980004FF0C0008DF800004FF0C2008DF801001C
:104990004FF0C4008DF802004FF0C6008DF8030000
:1049A00004E08B220421684601F0D8F86A4604210D
:1049B00040F69820FFF762F9FDF7F0FC38BD3EB5F0
:1049C00004466CB1FEA1D1E900208968CDE9002040
:1049D00002916A4609214FF49760FFF74FF93EBDF7
:1049E000FAA2D2E900109268CDE9010200916A466C
:1049F00009214FF49760FFF741F9F0E73EB504460F
:104A00004FF002008DF800004FF0CA008DF8010051
:104A10004FF0E3008DF802004FF009008DF803001D
:104A20006A464FF004014FF06800FFF727F94FF096
:104A3000A3008DF8000014F0400F0CD04FF0C00020
:104A40008DF801004FF0C8008DF802004FF0C20051
:104A50008DF8030007E04FF0A3008DF801008DF8FA
:104A600002008DF8030014F4C07F0CD04FF0C40096
:104A70008DF804004FF0CC008DF805004FF0C60013
:104A80008DF8060007E04FF0A3008DF804008DF8C4
:104A900005008DF806004FF0A3008DF807008DF893
:104AA00008008DF809006A464FF00A0140F6A72079
:104AB000FFF7E4F814F0030F04D04FF020008DF856
:104AC000000003E04FF0D8008DF800006A46012195
:104AD00040F6B620FFF7D2F814F0200F03D00120E3
:104AE000FFF76DFF02E00020FFF769FF14F4C07FBD
:104AF00029D014F4807F10D04FF0B2008DF8000060
:104B00004FF08B008DF801004FF0B6008DF80200D9
:104B10004FF09B008DF803000FE04FF0B0008DF8D0
:104B200000004FF080008DF801004FF0B4008DF8C8
:104B300002004FF090008DF803006A46042140F611
:104B4000A220FFF79BF814F0010F26D04FF0F800D9
:104B50008DF800006A464FF001014FF40B60FFF73B
:104B60008DF8FA210720FFF7D6FC0720FFF79BFD01
:104B70000120FFF7BCFD6420FFF7D0FD4FF4FA7071
:104B8000FFF7E2FDC8219448FFF7F4FD2820FFF766
:104B900011FE0A20FFF724FE0AE04FF0D8008DF83E
:104BA00000006A464FF001014FF40B60FFF766F812
:104BB00014F0020F04D04FF0D9008DF8000003E08C
:104BC0004FF0D8008DF800006A46012140F23D7098
:104BD000FFF754F814F0040F03D00120FFF7CDFEC7
:104BE00002E00020FFF7C9FE14F0100F03D00120EF
:104BF000FFF7A1FE02E00020FFF79DFE44F0080051
:104C000076494881FDF7CAFB4FF00000734988736D
:104C100014F0400F04D00846807B00F10600887332
:104C200014F4C07F05D06D48807B00F106006B490D
:104C3000887314F0140F05D06848807B00F11000D1
:104C40006649887314F0030F05D06448807B00F137
:104C500004006249887300203EBD01465F484089D8
:104C600008804FF0000070472DE9F0410446E078DD
:104C700000F0C006E07800F03F05607810F0010F0A
:104C800017D04FEAE50728464FEAE57105EB517169
:104C90004FEAE101A5EBC10101F1010101F0FF08BB
:104CA0004E48006820B14D4841460268384690475A
:104CB00000BF607810F0080F06D04848406818B16F
:104CC000B011464A516888470020BDE8F08110B510
:104CD00086B0044642A207CA03AB07C343A207CA71
:104CE0008DE80700012C09D0022C0ED103AA0B215C
:104CF00040F68220FEF7C2FF06B010BD6A460B21C7
:104D000040F68220FEF7BAFFF6E74FF0FF30F3E7F8
:104D10002DE9F04F8DB00746884615469946DDE9E6
:104D2000166B4FF00004204630802C49887B5A4691
:104D300005A9FEF7B5FA18B1601E0DB0BDE8F08FF9
:104D40002648408910F0140F7ED09DF814004FEAD9
:104D500000609DF8151040EA01409DF8161040EAE9
:104D600001209DF8171040EA010028609DF8180006
:104D70004FEA00609DF8191040EA01409DF81A10B2
:104D800040EA01209DF81B1040EA010068609DF890
:104D90001C004FEA00609DF81D1040EA01409DF89C
:104DA0001E1040EA01209DF81F1040EA0100A86093
:104DB0009DF820004FEA00609DF821101CE00000E3
:104DC000B8AAB38DB4980D355D000000B8AAAAAAA0
:104DD000B088C3C5C700000009E3CA02680200200A
:104DE000D8B1B9F38BA391B609B4D900DAB1B9F34C
:104DF0008BA391B6DAB4DA0040EA01409DF82210A4
:104E000040EA01209DF8231040EA0100E86004F127
:104E10001000C4B228684FEA2040019068684FEA49
:104E200020400290A8684FEA20400390E8684FEACB
:104E300020400490019800FB00F0029901FB010062
:104E4000039901FB010000E016E0049901FB010A4F
:104E5000BAF1706F02DBBAF1885F07DDFDF79EFAE9
:104E60004FF0000030804FF0FF3066E7B6F90000E9
:104E700040F48070308000BF3B48408910F0400F04
:104E80002AD005A904F10100085C095D40EA01206F
:104E900000B2A8F8000005A904F10300095C05AA06
:104EA00004F10200105C41EA002000B2A8F8020000
:104EB00005A904F10500095C04F10400105C41EA55
:104EC000002000B2A8F8040004F10600C4B2B6F94C
:104ED000000040F0080030802348408910F4C07F73
:104EE00027D005A904F10100085C095D40EA012012
:104EF00000B2388005A904F10300095C05AA04F199
:104F00000200105C41EA002000B2788005A904F19B
:104F10000500095C04F10400105C41EA002000B2C5
:104F2000B88004F10600C4B2B6F9000040F0700089
:104F300030800D48408910F0030F03D005A90819EF
:104F4000FFF792FE4846FCF7A6FD0020F5E6014675
:104F5000054801604FF0000070470146024841607B
:104F60004FF000007047000068020020014691F9F0
:104F70000020002A02DD4FF0000024E091F900201B
:104F8000002A02DA4FF004001DE091F90120002A06
:104F900002DD4FF0010016E091F90120002A02DA4B
:104FA0004FF005000FE091F90220002A02DD4FF0DA
:104FB000020008E091F90220002A02DA4FF0060010
:104FC00001E04FF00700704770B505462846FFF72F
:104FD000CDFF044605F10300FFF7C8FF44EAC00017
:104FE00084B205F10600FFF7C1FF44EA801084B2E5
:104FF000204670BD70B588B002A905A8FEF7A2FDD5
:105000000446072C3FD101A8FDF7B5FF059803F032
:1050100003F90646019903F05FF9054603F0C0F86D
:105020000590069803F0F8F80646019903F054F944
:10503000054603F0B5F80690079803F0EDF806462C
:10504000019903F049F9054603F0AAF8079005A86D
:10505000FFF7BCF86846FDF7ABFFBDF800100298FB
:1050600048430290BDF80010039848430390BDF8F0
:10507000001004984843049002A8FFF751F962A079
:1050800000F0B2FB02E069A000F0AEFB08B070BD1A
:1050900010B54FF4FA70FBF739F9FDF74FFC002813
:1050A00060D16BA000F0A0FB7820FDF760F818B984
:1050B00071A000F099FB02E078A000F095FB782049
:1050C000FDF75FFA18B980A000F08EFB02E088A01F
:1050D00000F08AFBC820FDF751FB18B990A000F042
:1050E00083FB02E098A000F07FFBFEF7D3FF18B926
:1050F0009EA000F079FB02E0A9A000F075FBB74884
:10510000FFF762FF0446FEF7CFFF18B9B4A000F026
:105110006BFB02E0BCA000F067FB40F27310FFF7EE
:105120006DFC18B9C4A000F05FFB02E0CCA000F059
:105130005BFBC820FFF7B4F918B9D5A000F054FB09
:1051400002E0DCA000F050FBFFF754FF0120FEF767
:10515000AFFC18B9E3A000F047FB06E0EAA000F0BE
:1051600043FB02E0F4A000F03FFB10BD2DE9F04F3F
:1051700089B0FD48FD49FE4BFE4ACDE90010FE49CD
:10518000FE48FFF7C5FDF948008810F4807F39D04C
:10519000F849086803F040F804464FF09D4102F0DA
:1051A00009FFF7490860F349486803F035F80446F9
:1051B0004FF09D4102F0FEFEF2490860ED4988681B
:1051C00003F02AF804464FF09D4102F0F3FEEE4949
:1051D0000860E849C86803F01FF804464FF09D4195
:1051E00002F0E8FEE9490860E54801684FF08040B8
:1051F00003F072F80690E4480168069803F06CF832
:105200008246C5E190E2000073657474696E6720A0
:10521000626961732073756363657366756C6C791D
:10522000202E2E2E2E2E2E0D0A0000006269617394
:1052300020686173206E6F74206265656E206D6FEB
:10524000646966696564202E2E2E2E2E2E0D0A00AE
:105250006D707520696E697469616C697A617469D1
:105260006F6E20636F6D706C6574652E2E2E2E2E02
:105270002E0D0A20000000006D70755F7365745F6D
:1052800073656E736F7220636F6D706C65746520EB
:105290002E2E2E2E2E2E0D0A000000006D70755F32
:1052A0007365745F73656E736F7220636F6D6520D5
:1052B0006163726F7373206572726F72202E2E2E6F
:1052C0002E2E2E0D0A0000006D70755F636F6E66E6
:1052D00069677572655F6669666F20636F6D706C74
:1052E000657465202E2E2E2E2E2E0D0A0000000035
:1052F0006D70755F636F6E6669677572655F66690D
:10530000666F20636F6D65206163726F73732065D4
:1053100072726F72202E2E2E2E2E2E0D0A0000007D
:105320006D70755F7365745F73616D706C655F72CE
:1053300061746520636F6D706C657465202E2E2E10
:105340002E2E2E0D0A0000006D70755F7365745F60
:1053500073616D706C655F72617465206572726FE8
:1053600072202E2E2E2E2E2E0D0A0000646D705FE0
:105370006C6F61645F6D6F74696F6E5F6472697684
:1053800065725F6669726D7761726520636F6D70BB
:105390006C657465202E2E2E2E2E2E0D0A00000018
:1053A000646D705F6C6F61645F6D6F74696F6E5F69
:1053B0006472697665725F6669726D776172652085
:1053C000636F6D65206163726F7373206572726FB6
:1053D00072202E2E2E2E2E2E0D0A0000740100207B
:1053E000646D705F7365745F6F7269656E7461740C
:1053F000696F6E20636F6D706C657465202E2E2E44
:105400002E2E2E0D0A000000646D705F7365745FB0
:105410006F7269656E746174696F6E20636F6D651C
:10542000206163726F7373206572726F72202E2E0B
:105430002E2E2E2E0D0A0000646D705F656E616267
:105440006C655F6665617475726520636F6D706C05
:10545000657465202E2E2E2E2E2E0D0A00000000C3
:10546000646D705F656E61626C655F6665617475C1
:10547000726520636F6D65206163726F7373206561
:1054800072726F72202E2E2E2E2E2E0D0A0000000C
:10549000646D705F7365745F6669666F5F72617477
:1054A0006520636F6D706C657465202E2E2E2E2E18
:1054B0002E0D0A00646D705F7365745F6669666FB8
:1054C0005F7261746520636F6D65206163726F73D5
:1054D00073206572726F72202E2E2E2E2E2E0D0AC4
:1054E000000000006D70755F7365745F646D705FC0
:1054F000737461746520636F6D706C657465202EC4
:105500002E2E2E2E2E0D0A006D70755F7365745F42
:10551000646D705F737461746520636F6D65206185
:1055200063726F7373206572726F72202E2E2E2E2F
:105530002E2E0D0A000000006D707520696E6974D2
:1055400069616C697A6174696F6E20636F6D652043
:105550006163726F7373206572726F722E2E2E2EBE
:105560002E2E0D0A20000000920100209001002044
:1055700080010020780200208A01002084010020A0
:1055800064010020680100206C01002070010020EF
:10559000674801684FF0404002F09EFE0690654863
:1055A0000168069802F098FE8346514602F094FC8A
:1055B000079002F065FC804601F000FC06464FF0C3
:1055C00066325D4B02F082F9044601F045FF5B490B
:1055D00008605B4801684FF0804002F07DFE039058
:1055E00057480168039802F077FE824650480168E8
:1055F0004FF0404002F070FE03904D480168039860
:1056000002F06AFE8346514602F074FF81464FF075
:105610007E5102F061FC804602F032FCCDE90401CB
:10562000484801684FF0804002F056FE83464048EB
:105630000168584602F050FE8146414801684FF02B
:10564000804002F049FE83463A480168584602F01D
:1056500043FE8246494602F03FFC804602F010FCC1
:105660000446DDE9042301F0FBFD4FF06632324BC6
:10567000CDE9060102F02AF9064601F0EDFE3249B5
:1056800008602C480168006802F026FE03902C4850
:105690000168006802F020FE029025480168006859
:1056A00002F01AFE834627480168006802F014FEE3
:1056B0005946019002F010FC8246029902F01AFF4E
:1056C0008146039902F016FF804602F0D9FB04469A
:1056D0000D46184801681B48006802F0FDFD82462F
:1056E000174801681248006802F0F6FD83465146EB
:1056F00002F0F2FB81464FF0804102F0EDFD804662
:1057000002F0BEFB064622462B4601F0A9FD4FF0F3
:105710006632094BCDE9040102F0D8F8CDE9060163
:1057200001F09AFE0949086009B0BDE8F08F000059
:10573000680100207001002066A64C409C010020FA
:105740006C010020640100209801002094010020D9
:105750007047B2F120030AD5C2F1200301FA02F129
:1057600020FA03F300FA02F041EA0301704700FA5D
:1057700003F14FF000007047B2F120030AD5C2F1E7
:10578000200320FA02F001FA03F341FA02F140EAA1
:105790000300704741FA03F04FEAE171704710B51A
:1057A0004C1084EA530404D54042C1F1000138BFD3
:1057B000491E1B4204D55242C3F1000338BF5B1E91
:1057C00000F0D8F914F0804F04D04042C1F100013C
:1057D00038BF491E14F0004F04D05242C3F10003F9
:1057E00038BF5B1E10BD00000FB4044910B503AAFA
:1057F000029800F0C3FC10BC5DF814FB0800002008
:1058000070B5044685690068C10601D5302600E000
:105810002026C00708D070BDD4E90121304690474A
:10582000206A00F1010020626D1EF5D570BD70B5D3
:10583000044685690068C00708D170BDD4E901211C
:1058400020209047206A00F1010020626D1EF5D5EE
:1058500070BD70B505460C46012A05D02868800643
:1058600000D5EA69002302E0012305E05B1C9342B6
:1058700002D2E05C0028F9D1A869E618C01AA86134
:10588000286A184428622846FFF7BAFF04E0D5E9E1
:10589000012114F8010B9047B442F8D32846FFF7D2
:1058A000C6FF70BD2DE9F041074600251068752937
:1058B000394616A411D0AFF30080002803DAC0F1F6
:1058C000000013A407E039688A0701D511A402E09B
:1058D000490704D510A4012501E0AFF300800021A1
:1058E0000A2307F1240607E0B0FBF3F203FB1200E2
:1058F000303070541046491C0028F5D12B46224602
:105900003846BDE8F04100F0B7B9000000000000E3
:105910002D0000002B0000002000000070B50446A0
:105920000D4621461068AFF300802168090502D5B5
:10593000104A7A4402E00F4A7A440E32002104F100
:10594000240307E000F00F064FEA1010965D5E5446
:1059500001F101010028F5D120680023000704D5DA
:10596000702D02D009B1113202232046BDE87040EB
:1059700000F082B9323A00002DE9F05F0446894612
:105980004FF0000ADFF878B1FB44C0F820A02046B1
:10599000E1688847002875D0252806D0D4E9012180
:1059A0009047206A401C2062F1E700265F462046AF
:1059B000E16888472028054608DB312D06D207EB31
:1059C000050010F8200C08B10643F0E7B00701D538
:1059D00026F00406C4F81CA00027C4F818A02A2D3D
:1059E00009D0284601F0E2F938B304EB8708303DCE
:1059F000C8F8185019E059F8041B204604EB870238
:105A00009161E1688847012F054618D1E0690028B7
:105A100020DA26F020061DE0D8F8180000EB800000
:105A200005EB40003038C8F818002046E168884788
:105A3000054601F0BBF90028EED1012F0AD02E2D2A
:105A400008D12046E16888477F1C0546022F46F0B2
:105A50002006C4DBA069002803DA404246F00106B4
:105A6000A061F00701D026F010066C2D0BD0682D38
:105A700009D04C2D39D06A2D35D0742D35D07A2DE2
:105A800033D016E038E0E1682F4620468847B84218
:105A9000054609D16C2F26D04FF48060E16806439B
:105AA00020468847054604E06C2F1AD04FF48070DA
:105AB00006430DB3A5F14100192802D8203546F45C
:105AC00000664A462946204626604E46FAF78AFB7B
:105AD00080B101280BD0F61D26F0070000F108095F
